{
  "_format": "hh-sol-artifact-1",
  "contractName": "MerchantPay",
  "sourceName": "contracts/MerchantPay.sol",
  "abi": [
    {
      "inputs": [
        {
          "internalType": "address",
          "name": "_CKES",
          "type": "address"
        }
      ],
      "stateMutability": "nonpayable",
      "type": "constructor"
    },
    {
      "anonymous": false,
      "inputs": [
        {
          "indexed": true,
          "internalType": "bytes32",
          "name": "id",
          "type": "bytes32"
        },
        {
          "indexed": true,
          "internalType": "address",
          "name": "seller",
          "type": "address"
        },
        {
          "indexed": true,
          "internalType": "address",
          "name": "buyer",
          "type": "address"
        },
        {
          "indexed": false,
          "internalType": "uint256",
          "name": "amount",
          "type": "uint256"
        },
        {
          "indexed": false,
          "internalType": "uint256",
          "name": "quantity",
          "type": "uint256"
        }
      ],
      "name": "ListingPaid",
      "type": "event"
    },
    {
      "anonymous": false,
      "inputs": [
        {
          "indexed": true,
          "internalType": "bytes32",
          "name": "id",
          "type": "bytes32"
        },
        {
          "indexed": true,
          "internalType": "address",
          "name": "seller",
          "type": "address"
        },
        {
          "indexed": false,
          "internalType": "uint256",
          "name": "rate",
          "type": "uint256"
        },
        {
          "indexed": false,
          "internalType": "uint256",
          "name": "quantity",
          "type": "uint256"
        }
      ],
      "name": "newListing",
      "type": "event"
    },
    {
      "inputs": [],
      "name": "CKES",
      "outputs": [
        {
          "internalType": "address",
          "name": "",
          "type": "address"
        }
      ],
      "stateMutability": "view",
      "type": "function"
    },
    {
      "inputs": [
        {
          "internalType": "bytes32",
          "name": "_id",
          "type": "bytes32"
        },
        {
          "internalType": "uint256",
          "name": "_rate",
          "type": "uint256"
        },
        {
          "internalType": "uint256",
          "name": "_quantity",
          "type": "uint256"
        }
      ],
      "name": "addListing",
      "outputs": [],
      "stateMutability": "nonpayable",
      "type": "function"
    },
    {
      "inputs": [
        {
          "internalType": "address",
          "name": "_seller",
          "type": "address"
        }
      ],
      "name": "getAllListingsForAddress",
      "outputs": [
        {
          "components": [
            {
              "internalType": "bytes32",
              "name": "id",
              "type": "bytes32"
            },
            {
              "internalType": "address",
              "name": "seller",
              "type": "address"
            },
            {
              "internalType": "address",
              "name": "buyer",
              "type": "address"
            },
            {
              "internalType": "uint256",
              "name": "rate",
              "type": "uint256"
            },
            {
              "internalType": "uint256",
              "name": "quantity",
              "type": "uint256"
            },
            {
              "internalType": "enum MerchantPay.Status",
              "name": "status",
              "type": "uint8"
            }
          ],
          "internalType": "struct MerchantPay.Listing[]",
          "name": "",
          "type": "tuple[]"
        }
      ],
      "stateMutability": "view",
      "type": "function"
    },
    {
      "inputs": [
        {
          "internalType": "bytes32",
          "name": "_id",
          "type": "bytes32"
        },
        {
          "internalType": "address",
          "name": "_seller",
          "type": "address"
        }
      ],
      "name": "getListing",
      "outputs": [
        {
          "components": [
            {
              "internalType": "bytes32",
              "name": "id",
              "type": "bytes32"
            },
            {
              "internalType": "address",
              "name": "seller",
              "type": "address"
            },
            {
              "internalType": "address",
              "name": "buyer",
              "type": "address"
            },
            {
              "internalType": "uint256",
              "name": "rate",
              "type": "uint256"
            },
            {
              "internalType": "uint256",
              "name": "quantity",
              "type": "uint256"
            },
            {
              "internalType": "enum MerchantPay.Status",
              "name": "status",
              "type": "uint8"
            }
          ],
          "internalType": "struct MerchantPay.Listing",
          "name": "",
          "type": "tuple"
        }
      ],
      "stateMutability": "view",
      "type": "function"
    },
    {
      "inputs": [
        {
          "internalType": "bytes32",
          "name": "",
          "type": "bytes32"
        },
        {
          "internalType": "address",
          "name": "",
          "type": "address"
        }
      ],
      "name": "listings",
      "outputs": [
        {
          "internalType": "bytes32",
          "name": "id",
          "type": "bytes32"
        },
        {
          "internalType": "address",
          "name": "seller",
          "type": "address"
        },
        {
          "internalType": "address",
          "name": "buyer",
          "type": "address"
        },
        {
          "internalType": "uint256",
          "name": "rate",
          "type": "uint256"
        },
        {
          "internalType": "uint256",
          "name": "quantity",
          "type": "uint256"
        },
        {
          "internalType": "enum MerchantPay.Status",
          "name": "status",
          "type": "uint8"
        }
      ],
      "stateMutability": "view",
      "type": "function"
    },
    {
      "inputs": [
        {
          "internalType": "bytes32",
          "name": "_id",
          "type": "bytes32"
        },
        {
          "internalType": "address",
          "name": "_seller",
          "type": "address"
        },
        {
          "internalType": "uint256",
          "name": "_quantity",
          "type": "uint256"
        },
        {
          "internalType": "uint256",
          "name": "_amount",
          "type": "uint256"
        }
      ],
      "name": "payForListing",
      "outputs": [],
      "stateMutability": "nonpayable",
      "type": "function"
    }
  ],
  "bytecode": "0x60806040523480156200001157600080fd5b5060405162001810380380620018108339818101604052810190620000379190620000e8565b806000806101000a81548173ffffffffffffffffffffffffffffffffffffffff021916908373ffffffffffffffffffffffffffffffffffffffff160217905550506200011a565b600080fd5b600073ffffffffffffffffffffffffffffffffffffffff82169050919050565b6000620000b08262000083565b9050919050565b620000c281620000a3565b8114620000ce57600080fd5b50565b600081519050620000e281620000b7565b92915050565b6000602082840312156200010157620001006200007e565b5b60006200011184828501620000d1565b91505092915050565b6116e6806200012a6000396000f3fe608060405234801561001057600080fd5b50600436106100625760003560e01c80631c196a6c146100675780631cd607301461008357806365f7e3bb146100b35780637d2eb4cd146100e8578063a9b02f3a14610118578063d455fd7014610136575b600080fd5b610081600480360381019061007c9190610ece565b610152565b005b61009d60048036038101906100989190610f35565b6105b9565b6040516100aa9190611130565b60405180910390f35b6100cd60048036038101906100c89190611152565b61081c565b6040516100df969594939291906111ce565b60405180910390f35b61010260048036038101906100fd9190611152565b6108b2565b60405161010f91906112aa565b60405180910390f35b610120610a22565b60405161012d91906112c5565b60405180910390f35b610150600480360381019061014b91906112e0565b610a46565b005b60006001600086815260200190815260200160002060008573ffffffffffffffffffffffffffffffffffffffff1673ffffffffffffffffffffffffffffffffffffffff168152602001908152602001600020905060008382600301546101b89190611362565b9050600060038111156101ce576101cd610fbb565b5b8260050160009054906101000a900460ff1660038111156101f2576101f1610fbb565b5b148061023357506001600381111561020d5761020c610fbb565b5b8260050160009054906101000a900460ff16600381111561023157610230610fbb565b5b145b610272576040517f08c379a000000000000000000000000000000000000000000000000000000000815260040161026990611401565b60405180910390fd5b81600401548411156102b9576040517f08c379a00000000000000000000000000000000000000000000000000000000081526004016102b09061146d565b60405180910390fd5b808310156102fc576040517f08c379a00000000000000000000000000000000000000000000000000000000081526004016102f3906114d9565b60405180910390fd5b600061030b8360030154610d6c565b905060008054906101000a900473ffffffffffffffffffffffffffffffffffffffff1673ffffffffffffffffffffffffffffffffffffffff166323b872dd338560010160009054906101000a900473ffffffffffffffffffffffffffffffffffffffff16848661037b91906114f9565b6040518463ffffffff1660e01b81526004016103999392919061152d565b6020604051808303816000875af11580156103b8573d6000803e3d6000fd5b505050506040513d601f19601f820116820180604052508101906103dc919061159c565b5060008054906101000a900473ffffffffffffffffffffffffffffffffffffffff1673ffffffffffffffffffffffffffffffffffffffff166323b872dd3330846040518463ffffffff1660e01b815260040161043a9392919061152d565b6020604051808303816000875af1158015610459573d6000803e3d6000fd5b505050506040513d601f19601f8201168201806040525081019061047d919061159c565b50338360020160006101000a81548173ffffffffffffffffffffffffffffffffffffffff021916908373ffffffffffffffffffffffffffffffffffffffff160217905550848360040160008282546104d591906114f9565b92505081905550600083600401540361051a5760028360050160006101000a81548160ff021916908360038111156105105761050f610fbb565b5b0217905550610548565b60018360050160006101000a81548160ff0219169083600381111561054257610541610fbb565b5b02179055505b3373ffffffffffffffffffffffffffffffffffffffff168673ffffffffffffffffffffffffffffffffffffffff16887f265bf0423aa991250d240a2b44d227305c6c2103d8044de1b3523effc7c65cd187896040516105a89291906115c9565b60405180910390a450505050505050565b60606000600360008473ffffffffffffffffffffffffffffffffffffffff1673ffffffffffffffffffffffffffffffffffffffff16815260200190815260200160002090506000818054905067ffffffffffffffff81111561061e5761061d6115f2565b5b60405190808252806020026020018201604052801561065757816020015b610644610d88565b81526020019060019003908161063c5790505b50905060005b828054905081101561081157600160008483815481106106805761067f611621565b5b9060005260206000200154815260200190815260200160002060008673ffffffffffffffffffffffffffffffffffffffff1673ffffffffffffffffffffffffffffffffffffffff1681526020019081526020016000206040518060c0016040529081600082015481526020016001820160009054906101000a900473ffffffffffffffffffffffffffffffffffffffff1673ffffffffffffffffffffffffffffffffffffffff1673ffffffffffffffffffffffffffffffffffffffff1681526020016002820160009054906101000a900473ffffffffffffffffffffffffffffffffffffffff1673ffffffffffffffffffffffffffffffffffffffff1673ffffffffffffffffffffffffffffffffffffffff16815260200160038201548152602001600482015481526020016005820160009054906101000a900460ff1660038111156107d0576107cf610fbb565b5b60038111156107e2576107e1610fbb565b5b815250508282815181106107f9576107f8611621565b5b6020026020010181905250808060010191505061065d565b508092505050919050565b6001602052816000526040600020602052806000526040600020600091509150508060000154908060010160009054906101000a900473ffffffffffffffffffffffffffffffffffffffff16908060020160009054906101000a900473ffffffffffffffffffffffffffffffffffffffff16908060030154908060040154908060050160009054906101000a900460ff16905086565b6108ba610d88565b6001600084815260200190815260200160002060008373ffffffffffffffffffffffffffffffffffffffff1673ffffffffffffffffffffffffffffffffffffffff1681526020019081526020016000206040518060c0016040529081600082015481526020016001820160009054906101000a900473ffffffffffffffffffffffffffffffffffffffff1673ffffffffffffffffffffffffffffffffffffffff1673ffffffffffffffffffffffffffffffffffffffff1681526020016002820160009054906101000a900473ffffffffffffffffffffffffffffffffffffffff1673ffffffffffffffffffffffffffffffffffffffff1673ffffffffffffffffffffffffffffffffffffffff16815260200160038201548152602001600482015481526020016005820160009054906101000a900460ff166003811115610a0457610a03610fbb565b5b6003811115610a1657610a15610fbb565b5b81525050905092915050565b60008054906101000a900473ffffffffffffffffffffffffffffffffffffffff1681565b6040518060c001604052808481526020013373ffffffffffffffffffffffffffffffffffffffff168152602001600073ffffffffffffffffffffffffffffffffffffffff16815260200183815260200182815260200160006003811115610ab057610aaf610fbb565b5b8152506001600085815260200190815260200160002060003373ffffffffffffffffffffffffffffffffffffffff1673ffffffffffffffffffffffffffffffffffffffff1681526020019081526020016000206000820151816000015560208201518160010160006101000a81548173ffffffffffffffffffffffffffffffffffffffff021916908373ffffffffffffffffffffffffffffffffffffffff16021790555060408201518160020160006101000a81548173ffffffffffffffffffffffffffffffffffffffff021916908373ffffffffffffffffffffffffffffffffffffffff160217905550606082015181600301556080820151816004015560a08201518160050160006101000a81548160ff02191690836003811115610bda57610bd9610fbb565b5b021790555090505060006001905060005b600280549050811015610c33578460028281548110610c0d57610c0c611621565b5b906000526020600020015403610c265760009150610c33565b8080600101915050610beb565b508015610c645760028490806001815401808255809150506001900390600052602060002001600090919091909150555b6000600190506000600360003373ffffffffffffffffffffffffffffffffffffffff1673ffffffffffffffffffffffffffffffffffffffff168152602001908152602001600020905060005b8180549050811015610cf65786828281548110610cd057610ccf611621565b5b906000526020600020015403610ce95760009250610cf6565b8080600101915050610cb0565b508115610d6457600360003373ffffffffffffffffffffffffffffffffffffffff1673ffffffffffffffffffffffffffffffffffffffff1681526020019081526020016000208690806001815401808255809150506001900390600052602060002001600090919091909150555b505050505050565b6000806103e883610d7d919061167f565b905080915050919050565b6040518060c0016040528060008019168152602001600073ffffffffffffffffffffffffffffffffffffffff168152602001600073ffffffffffffffffffffffffffffffffffffffff168152602001600081526020016000815260200160006003811115610df957610df8610fbb565b5b81525090565b600080fd5b6000819050919050565b610e1781610e04565b8114610e2257600080fd5b50565b600081359050610e3481610e0e565b92915050565b600073ffffffffffffffffffffffffffffffffffffffff82169050919050565b6000610e6582610e3a565b9050919050565b610e7581610e5a565b8114610e8057600080fd5b50565b600081359050610e9281610e6c565b92915050565b6000819050919050565b610eab81610e98565b8114610eb657600080fd5b50565b600081359050610ec881610ea2565b92915050565b60008060008060808587031215610ee857610ee7610dff565b5b6000610ef687828801610e25565b9450506020610f0787828801610e83565b9350506040610f1887828801610eb9565b9250506060610f2987828801610eb9565b91505092959194509250565b600060208284031215610f4b57610f4a610dff565b5b6000610f5984828501610e83565b91505092915050565b600081519050919050565b600082825260208201905092915050565b6000819050602082019050919050565b610f9781610e04565b82525050565b610fa681610e5a565b82525050565b610fb581610e98565b82525050565b7f4e487b7100000000000000000000000000000000000000000000000000000000600052602160045260246000fd5b60048110610ffb57610ffa610fbb565b5b50565b600081905061100c82610fea565b919050565b600061101c82610ffe565b9050919050565b61102c81611011565b82525050565b60c0820160008201516110486000850182610f8e565b50602082015161105b6020850182610f9d565b50604082015161106e6040850182610f9d565b5060608201516110816060850182610fac565b5060808201516110946080850182610fac565b5060a08201516110a760a0850182611023565b50505050565b60006110b98383611032565b60c08301905092915050565b6000602082019050919050565b60006110dd82610f62565b6110e78185610f6d565b93506110f283610f7e565b8060005b8381101561112357815161110a88826110ad565b9750611115836110c5565b9250506001810190506110f6565b5085935050505092915050565b6000602082019050818103600083015261114a81846110d2565b905092915050565b6000806040838503121561116957611168610dff565b5b600061117785828601610e25565b925050602061118885828601610e83565b9150509250929050565b61119b81610e04565b82525050565b6111aa81610e5a565b82525050565b6111b981610e98565b82525050565b6111c881611011565b82525050565b600060c0820190506111e36000830189611192565b6111f060208301886111a1565b6111fd60408301876111a1565b61120a60608301866111b0565b61121760808301856111b0565b61122460a08301846111bf565b979650505050505050565b60c0820160008201516112456000850182610f8e565b5060208201516112586020850182610f9d565b50604082015161126b6040850182610f9d565b50606082015161127e6060850182610fac565b5060808201516112916080850182610fac565b5060a08201516112a460a0850182611023565b50505050565b600060c0820190506112bf600083018461122f565b92915050565b60006020820190506112da60008301846111a1565b92915050565b6000806000606084860312156112f9576112f8610dff565b5b600061130786828701610e25565b935050602061131886828701610eb9565b925050604061132986828701610eb9565b9150509250925092565b7f4e487b7100000000000000000000000000000000000000000000000000000000600052601160045260246000fd5b600061136d82610e98565b915061137883610e98565b925082820261138681610e98565b9150828204841483151761139d5761139c611333565b5b5092915050565b600082825260208201905092915050565b7f496e76616c6964206c697374696e670000000000000000000000000000000000600082015250565b60006113eb600f836113a4565b91506113f6826113b5565b602082019050919050565b6000602082019050818103600083015261141a816113de565b9050919050565b7f496e76616c6964207175616e7469747900000000000000000000000000000000600082015250565b60006114576010836113a4565b915061146282611421565b602082019050919050565b600060208201905081810360008301526114868161144a565b9050919050565b7f496e76616c696420616d6f756e74000000000000000000000000000000000000600082015250565b60006114c3600e836113a4565b91506114ce8261148d565b602082019050919050565b600060208201905081810360008301526114f2816114b6565b9050919050565b600061150482610e98565b915061150f83610e98565b925082820390508181111561152757611526611333565b5b92915050565b600060608201905061154260008301866111a1565b61154f60208301856111a1565b61155c60408301846111b0565b949350505050565b60008115159050919050565b61157981611564565b811461158457600080fd5b50565b60008151905061159681611570565b92915050565b6000602082840312156115b2576115b1610dff565b5b60006115c084828501611587565b91505092915050565b60006040820190506115de60008301856111b0565b6115eb60208301846111b0565b9392505050565b7f4e487b7100000000000000000000000000000000000000000000000000000000600052604160045260246000fd5b7f4e487b7100000000000000000000000000000000000000000000000000000000600052603260045260246000fd5b7f4e487b7100000000000000000000000000000000000000000000000000000000600052601260045260246000fd5b600061168a82610e98565b915061169583610e98565b9250826116a5576116a4611650565b5b82820490509291505056fea2646970667358221220b79372c411b16975033243ce66c61e7e77d12c1278efeafc06169f37af02636d64736f6c63430008180033",
  "linkReferences": {},
  "deployedLinkReferences": {}
}